:1000000000100020C10000002901000029010000AB
:1000100000000000000000000000000000000000E0
:1000200000000000000000000000000029010000A6
:10003000000000000000000029010000290100006C
:100040002901000029010000290100000000000032
:100050002901000000000000000000000000000076
:100060000000000029010000000000000000000066
:10007000000000002901000000000000290100002C
:10008000290100000000000029010000000000001C
:100090002901000000000000000000000000000036
:1000A00029010000290100000000000000000000FC
:1000B0000000000000000000000000002901000016
:1000C00080B584B000AF134BFB60134BBB6007E0FF
:1000D000FA68131DFB60BB68191DB96012681A60CD
:1000E000BA680E4B9A42F3D30D4B7B600D4B3B60CD
:1000F00005E07B6800221A607B6804337B607A68C5
:100100003B689A42F5D3202000F052F800F010F836
:10011000C046FDE79802000000000020000000201B
:10012000000000200800002080B500AFC046FDE7B9
:1001300080B582B000AF194B8122DA66184A80235D
:100140001B011849D15000237B6002E07B6801331A
:100150007B607B68632BF9DD114A96235B01D358E2
:100160000F498022D2041A4396235B01CA500C49DE
:1001700095235B018022D204CA5009490A4A802390
:10018000DB048B5000233B6002E03B6801333B60A3
:100190003B68064A9342F8DDEFE7C04600804240E4
:1001A00000000A4001000026B01200001FA1070055
:1001B00080B582B000AF0200FB1D1A70FB1D1B78DA
:1001C000202B02D9FB1D20221A70FB1D1B78180062
:1001D00000F014F8FB1D19780A005201521A93011D
:1001E0009B1ADB005B189B011A00034B1A60C04688
:1001F000BD4602B080BDC0460000002080B584B07E
:1002000000AF0200FB1D1A70FB1D1B78302B11D0B4
:1002100013DC202B0BD010DC182B10D00DDC042BA2
:1002200002D0102B0DD008E00123FB600AE0002370
:10023000FB6007E00323FB6004E0C04602E0C04629
:1002400000E0C0460D4A88235B01D3580322934344
:100250001A000A49FB681A4388235B01CA50C0464A
:10026000064A074BD35803221340FA689A42F7D143
:10027000C046C046BD4604B080BDC04600F00A403E
:100280000412000080B500AFC046BD4680BD80B5F9
:0802900000AFC046BD4680BD71
:04000003000000C039
:00000001FF
